:0700000002005F12001F3235
:04000B00120042326B
:0E001B0012004832208117D28179001200872E
:10002900120078758BB0758C3CD280D28CD28E221E
:0F003900C281C28CC28EC28022B2801200782295
:10004800D80E09B912027900120087120078D280FE
:10005800758BB0758C3C22D2AFD2A9D2AB75891101
:10006800D288D2A875B0007580007800790080FE2B
:0F00780090009EE993F58A90008EE993F58C2213
:100087009000B0E993F822FBFBFBFAFBFBFAFBFBC2
:10009700FDFDFDFDFBFBFA90909068E99068E99003
:1000A7000A0A0A34E94C68E94C01141404011404DF
:0B00B700012814141404011404012893
:00000001FF
