:0700000002007312001F3221
:04000B00120042326B
:0E001B0012004832208117D281790012009F16
:10002900120090758BB0758C3CD280D28CD28E2206
:0F003900C281C28CC28EC28022B280120090227D
:0F004800D81909B912027900C28CC28E12006A4F
:0F00570012009F120090D28CD28ED280758BB087
:0F006600758C3C227BFA7A32DAFEDBFA22D2AFBB
:0E007500D2A9D2AB758911D288D2A875B0007D
:10008300758000780079007A007B0080FE9000B6CE
:10009300E993F58A9000A6E993F58C229000C8E9CC
:1000A30093F822FBFBFBFAFBFBFAFBFBFDFDFDFDDB
:1000B300FBFBFA90909068E99068E9900A0A0A3489
:1000C300E94C68E94C1414140401140401281414B1
:0700D30014040114040128CC
:00000001FF
